{
  "_format": "hh-sol-artifact-1",
  "contractName": "MultisigFactory",
  "sourceName": "contracts/MultisigFactory.sol",
  "abi": [
    {
      "anonymous": false,
      "inputs": [
        {
          "indexed": true,
          "internalType": "address",
          "name": "walletAddress",
          "type": "address"
        },
        {
          "indexed": false,
          "internalType": "uint256",
          "name": "totalWallets",
          "type": "uint256"
        }
      ],
      "name": "MultisigWalletCreated",
      "type": "event"
    },
    {
      "inputs": [
        {
          "internalType": "uint8",
          "name": "_quorum",
          "type": "uint8"
        },
        {
          "internalType": "address[]",
          "name": "_validSigners",
          "type": "address[]"
        }
      ],
      "name": "createMultisigWallet",
      "outputs": [
        {
          "internalType": "contract Multisig",
          "name": "newMulsig_",
          "type": "address"
        },
        {
          "internalType": "uint256",
          "name": "length_",
          "type": "uint256"
        }
      ],
      "stateMutability": "nonpayable",
      "type": "function"
    },
    {
      "inputs": [],
      "name": "getMultiSigClones",
      "outputs": [
        {
          "internalType": "contract Multisig[]",
          "name": "",
          "type": "address[]"
        }
      ],
      "stateMutability": "view",
      "type": "function"
    }
  ],
  "bytecode": "0x608060405234801561001057600080fd5b50613279806100206000396000f3fe60806040523480156200001157600080fd5b50600436106200003a5760003560e01c8063109dd5e9146200003f578063b4d3a48c1462000061575b600080fd5b6200004962000098565b60405162000058919062000380565b60405180910390f35b6200007f6004803603810190620000799190620005b0565b62000128565b6040516200008f92919062000642565b60405180910390f35b606060008054806020026020016040519081016040528092919081815260200182805480156200011e57602002820191906000526020600020905b8160009054906101000a900473ffffffffffffffffffffffffffffffffffffffff1673ffffffffffffffffffffffffffffffffffffffff1681526020019060010190808311620000d3575b5050505050905090565b60008083836040516200013b906200022a565b620001489291906200073d565b604051809103906000f08015801562000165573d6000803e3d6000fd5b5091506000829080600181540180825580915050600190039060005260206000200160009091909190916101000a81548173ffffffffffffffffffffffffffffffffffffffff021916908373ffffffffffffffffffffffffffffffffffffffff16021790555060008054905090508173ffffffffffffffffffffffffffffffffffffffff167f9492665ae4acbe62679d14ff2398f159f4a39f9fb194e0468a876904eb49f189826040516200021b919062000771565b60405180910390a29250929050565b612ab5806200078f83390190565b600081519050919050565b600082825260208201905092915050565b6000819050602082019050919050565b600073ffffffffffffffffffffffffffffffffffffffff82169050919050565b6000819050919050565b6000620002af620002a9620002a38462000264565b62000284565b62000264565b9050919050565b6000620002c3826200028e565b9050919050565b6000620002d782620002b6565b9050919050565b620002e981620002ca565b82525050565b6000620002fd8383620002de565b60208301905092915050565b6000602082019050919050565b6000620003238262000238565b6200032f818562000243565b93506200033c8362000254565b8060005b8381101562000373578151620003578882620002ef565b9750620003648362000309565b92505060018101905062000340565b5085935050505092915050565b600060208201905081810360008301526200039c818462000316565b905092915050565b6000604051905090565b600080fd5b600080fd5b600060ff82169050919050565b620003d081620003b8565b8114620003dc57600080fd5b50565b600081359050620003f081620003c5565b92915050565b600080fd5b6000601f19601f8301169050919050565b7f4e487b7100000000000000000000000000000000000000000000000000000000600052604160045260246000fd5b6200044682620003fb565b810181811067ffffffffffffffff821117156200046857620004676200040c565b5b80604052505050565b60006200047d620003a4565b90506200048b82826200043b565b919050565b600067ffffffffffffffff821115620004ae57620004ad6200040c565b5b602082029050602081019050919050565b600080fd5b6000620004d18262000264565b9050919050565b620004e381620004c4565b8114620004ef57600080fd5b50565b6000813590506200050381620004d8565b92915050565b6000620005206200051a8462000490565b62000471565b90508083825260208201905060208402830185811115620005465762000545620004bf565b5b835b818110156200057357806200055e8882620004f2565b84526020840193505060208101905062000548565b5050509392505050565b600082601f830112620005955762000594620003f6565b5b8135620005a784826020860162000509565b91505092915050565b60008060408385031215620005ca57620005c9620003ae565b5b6000620005da85828601620003df565b925050602083013567ffffffffffffffff811115620005fe57620005fd620003b3565b5b6200060c858286016200057d565b9150509250929050565b6200062181620002ca565b82525050565b6000819050919050565b6200063c8162000627565b82525050565b600060408201905062000659600083018562000616565b62000668602083018462000631565b9392505050565b6200067a81620003b8565b82525050565b600081519050919050565b6000819050602082019050919050565b620006a681620004c4565b82525050565b6000620006ba83836200069b565b60208301905092915050565b6000602082019050919050565b6000620006e08262000680565b620006ec818562000243565b9350620006f9836200068b565b8060005b8381101562000730578151620007148882620006ac565b97506200072183620006c6565b925050600181019050620006fd565b5085935050505092915050565b60006040820190506200075460008301856200066f565b8181036020830152620007688184620006d3565b90509392505050565b600060208201905062000788600083018462000631565b9291505056fe60806040523480156200001157600080fd5b5060405162002ab538038062002ab583398181016040528101906200003791906200063d565b60018151116200007e576040517f08c379a0000000000000000000000000000000000000000000000000000000008152600401620000759062000704565b60405180910390fd5b60018260ff1611620000c7576040517f08c379a0000000000000000000000000000000000000000000000000000000008152600401620000be9062000776565b60405180910390fd5b60005b81518110156200029357600073ffffffffffffffffffffffffffffffffffffffff1682828151811062000102576200010162000798565b5b602002602001015173ffffffffffffffffffffffffffffffffffffffff160362000163576040517f08c379a00000000000000000000000000000000000000000000000000000000081526004016200015a9062000817565b60405180910390fd5b600260008383815181106200017d576200017c62000798565b5b602002602001015173ffffffffffffffffffffffffffffffffffffffff1673ffffffffffffffffffffffffffffffffffffffff16815260200190815260200160002060009054906101000a900460ff161562000210576040517f08c379a0000000000000000000000000000000000000000000000000000000008152600401620002079062000889565b60405180910390fd5b6001600260008484815181106200022c576200022b62000798565b5b602002602001015173ffffffffffffffffffffffffffffffffffffffff1673ffffffffffffffffffffffffffffffffffffffff16815260200190815260200160002060006101000a81548160ff0219169083151502179055508080600101915050620000ca565b508051600060016101000a81548160ff021916908360ff160217905550600260003373ffffffffffffffffffffffffffffffffffffffff1673ffffffffffffffffffffffffffffffffffffffff16815260200190815260200160002060009054906101000a900460ff1662000394576001600260003373ffffffffffffffffffffffffffffffffffffffff1673ffffffffffffffffffffffffffffffffffffffff16815260200190815260200160002060006101000a81548160ff0219169083151502179055506001600060018282829054906101000a900460ff166200037b9190620008da565b92506101000a81548160ff021916908360ff1602179055505b600060019054906101000a900460ff1660ff168260ff161115620003ef576040517f08c379a0000000000000000000000000000000000000000000000000000000008152600401620003e6906200098c565b60405180910390fd5b816000806101000a81548160ff021916908360ff1602179055505050620009ae565b6000604051905090565b600080fd5b600080fd5b600060ff82169050919050565b6200043d8162000425565b81146200044957600080fd5b50565b6000815190506200045d8162000432565b92915050565b600080fd5b6000601f19601f8301169050919050565b7f4e487b7100000000000000000000000000000000000000000000000000000000600052604160045260246000fd5b620004b38262000468565b810181811067ffffffffffffffff82111715620004d557620004d462000479565b5b80604052505050565b6000620004ea62000411565b9050620004f88282620004a8565b919050565b600067ffffffffffffffff8211156200051b576200051a62000479565b5b602082029050602081019050919050565b600080fd5b600073ffffffffffffffffffffffffffffffffffffffff82169050919050565b60006200055e8262000531565b9050919050565b620005708162000551565b81146200057c57600080fd5b50565b600081519050620005908162000565565b92915050565b6000620005ad620005a784620004fd565b620004de565b90508083825260208201905060208402830185811115620005d357620005d26200052c565b5b835b81811015620006005780620005eb88826200057f565b845260208401935050602081019050620005d5565b5050509392505050565b600082601f83011262000622576200062162000463565b5b81516200063484826020860162000596565b91505092915050565b600080604083850312156200065757620006566200041b565b5b600062000667858286016200044c565b925050602083015167ffffffffffffffff8111156200068b576200068a62000420565b5b62000699858286016200060a565b9150509250929050565b600082825260208201905092915050565b7f6665772076616c6964207369676e657273000000000000000000000000000000600082015250565b6000620006ec601183620006a3565b9150620006f982620006b4565b602082019050919050565b600060208201905081810360008301526200071f81620006dd565b9050919050565b7f71756f72756d20697320746f6f20736d616c6c00000000000000000000000000600082015250565b60006200075e601383620006a3565b91506200076b8262000726565b602082019050919050565b6000602082019050818103600083015262000791816200074f565b9050919050565b7f4e487b7100000000000000000000000000000000000000000000000000000000600052603260045260246000fd5b7f7a65726f2061646472657373206e6f7420616c6c6f7765640000000000000000600082015250565b6000620007ff601883620006a3565b91506200080c82620007c7565b602082019050919050565b600060208201905081810360008301526200083281620007f0565b9050919050565b7f7369676e657220616c7265616479206578697374000000000000000000000000600082015250565b600062000871601483620006a3565b91506200087e8262000839565b602082019050919050565b60006020820190508181036000830152620008a48162000862565b9050919050565b7f4e487b7100000000000000000000000000000000000000000000000000000000600052601160045260246000fd5b6000620008e78262000425565b9150620008f48362000425565b9250828201905060ff81111562000910576200090f620008ab565b5b92915050565b7f71756f72756d2067726561746572207468616e2076616c6964207369676e657260008201527f7300000000000000000000000000000000000000000000000000000000000000602082015250565b600062000974602183620006a3565b9150620009818262000916565b604082019050919050565b60006020820190508181036000830152620009a78162000965565b9050919050565b6120f780620009be6000396000f3fe608060405234801561001057600080fd5b506004361061009e5760003560e01c80636f669715116100665780636f669715146101495780639ace38c214610165578063ccb570e31461019e578063d40cfc51146101ba578063d5f50582146101d65761009e565b80631703a018146100a357806317eff51b146100c15780632f430e17146100df5780633c540687146100fb5780635952dd9014610119575b600080fd5b6100ab610206565b6040516100b8919061150c565b60405180910390f35b6100c9610217565b6040516100d6919061150c565b60405180910390f35b6100f960048036038101906100f49190611558565b61022a565b005b6101036107b1565b604051610110919061159e565b60405180910390f35b610133600480360381019061012e9190611643565b6107b7565b604051610140919061169e565b60405180910390f35b610163600480360381019061015e91906116b9565b6107e6565b005b61017f600480360381019061017a91906116b9565b610bdf565b6040516101959a9998979695949392919061176c565b60405180910390f35b6101b860048036038101906101b39190611808565b610cba565b005b6101d460048036038101906101cf9190611558565b6111d6565b005b6101f060048036038101906101eb919061185b565b6114d0565b6040516101fd919061169e565b60405180910390f35b60008054906101000a900460ff1681565b600060019054906101000a900460ff1681565b6000600360008360ff1681526020019081526020016000209050600081600001540361028b576040517f08c379a0000000000000000000000000000000000000000000000000000000008152600401610282906118e5565b60405180910390fd5b6000600181111561029f5761029e6116e6565b5b8160010160009054906101000a900460ff1660018111156102c3576102c26116e6565b5b14610303576040517f08c379a00000000000000000000000000000000000000000000000000000000081526004016102fa90611951565b60405180910390fd5b80600201548160070160009054906101000a900473ffffffffffffffffffffffffffffffffffffffff1673ffffffffffffffffffffffffffffffffffffffff166370a08231306040518263ffffffff1660e01b81526004016103659190611971565b602060405180830381865afa158015610382573d6000803e3d6000fd5b505050506040513d601f19601f820116820180604052508101906103a691906119a1565b10156103e7576040517f08c379a00000000000000000000000000000000000000000000000000000000081526004016103de90611a1a565b60405180910390fd5b8060040160149054906101000a900460ff1615610439576040517f08c379a000000000000000000000000000000000000000000000000000000000815260040161043090611a86565b60405180910390fd5b60008054906101000a900460ff1660ff1681600601541061048f576040517f08c379a000000000000000000000000000000000000000000000000000000000815260040161048690611af2565b60405180910390fd5b600260003373ffffffffffffffffffffffffffffffffffffffff1673ffffffffffffffffffffffffffffffffffffffff16815260200190815260200160002060009054906101000a900460ff1661051b576040517f08c379a000000000000000000000000000000000000000000000000000000000815260040161051290611b5e565b60405180910390fd5b600460003373ffffffffffffffffffffffffffffffffffffffff1673ffffffffffffffffffffffffffffffffffffffff16815260200190815260200160002060008360ff16815260200190815260200160002060009054906101000a900460ff16156105bc576040517f08c379a00000000000000000000000000000000000000000000000000000000081526004016105b390611bca565b60405180910390fd5b6001600460003373ffffffffffffffffffffffffffffffffffffffff1673ffffffffffffffffffffffffffffffffffffffff16815260200190815260200160002060008460ff16815260200190815260200160002060006101000a81548160ff021916908315150217905550600181600601600082825461063d9190611c19565b9250508190555080600801339080600181540180825580915050600190039060005260206000200160009091909190916101000a81548173ffffffffffffffffffffffffffffffffffffffff021916908373ffffffffffffffffffffffffffffffffffffffff16021790555060008054906101000a900460ff1660ff168160060154036107ad5760018160040160146101000a81548160ff0219169083151502179055508060070160009054906101000a900473ffffffffffffffffffffffffffffffffffffffff1673ffffffffffffffffffffffffffffffffffffffff1663a9059cbb8260040160009054906101000a900473ffffffffffffffffffffffffffffffffffffffff1683600201546040518363ffffffff1660e01b8152600401610768929190611c4d565b6020604051808303816000875af1158015610787573d6000803e3d6000fd5b505050506040513d601f19601f820116820180604052508101906107ab9190611ca2565b505b5050565b60015481565b60046020528160005260406000206020528060005260406000206000915091509054906101000a900460ff1681565b60006003600083815260200190815260200160002090506000816000015403610844576040517f08c379a000000000000000000000000000000000000000000000000000000000815260040161083b90611d1b565b60405180910390fd5b600180811115610857576108566116e6565b5b8160010160009054906101000a900460ff16600181111561087b5761087a6116e6565b5b146108bb576040517f08c379a00000000000000000000000000000000000000000000000000000000081526004016108b290611d87565b60405180910390fd5b600260003373ffffffffffffffffffffffffffffffffffffffff1673ffffffffffffffffffffffffffffffffffffffff16815260200190815260200160002060009054906101000a900460ff16610947576040517f08c379a000000000000000000000000000000000000000000000000000000000815260040161093e90611b5e565b60405180910390fd5b600460003373ffffffffffffffffffffffffffffffffffffffff1673ffffffffffffffffffffffffffffffffffffffff168152602001908152602001600020600083815260200190815260200160002060009054906101000a900460ff16156109e5576040517f08c379a00000000000000000000000000000000000000000000000000000000081526004016109dc90611bca565b60405180910390fd5b8060040160149054906101000a900460ff1615610a37576040517f08c379a0000000000000000000000000000000000000000000000000000000008152600401610a2e90611df3565b60405180910390fd5b60008054906101000a900460ff1660ff16816006015410610a8d576040517f08c379a0000000000000000000000000000000000000000000000000000000008152600401610a8490611e5f565b60405180910390fd5b6001600460003373ffffffffffffffffffffffffffffffffffffffff1673ffffffffffffffffffffffffffffffffffffffff168152602001908152602001600020600084815260200190815260200160002060006101000a81548160ff0219169083151502179055506001816006016000828254610b0b9190611c19565b9250508190555080600801339080600181540180825580915050600190039060005260206000200160009091909190916101000a81548173ffffffffffffffffffffffffffffffffffffffff021916908373ffffffffffffffffffffffffffffffffffffffff16021790555060008054906101000a900460ff1660ff16816006015403610bdb5760018160040160146101000a81548160ff0219169083151502179055508060010160019054906101000a900460ff166000806101000a81548160ff021916908360ff1602179055505b5050565b60036020528060005260406000206000915090508060000154908060010160009054906101000a900460ff16908060010160019054906101000a900460ff16908060020154908060030160009054906101000a900473ffffffffffffffffffffffffffffffffffffffff16908060040160009054906101000a900473ffffffffffffffffffffffffffffffffffffffff16908060040160149054906101000a900460ff16908060050154908060060154908060070160009054906101000a900473ffffffffffffffffffffffffffffffffffffffff1690508a565b600260003373ffffffffffffffffffffffffffffffffffffffff1673ffffffffffffffffffffffffffffffffffffffff16815260200190815260200160002060009054906101000a900460ff16610d46576040517f08c379a0000000000000000000000000000000000000000000000000000000008152600401610d3d90611ecb565b60405180910390fd5b600073ffffffffffffffffffffffffffffffffffffffff163373ffffffffffffffffffffffffffffffffffffffff1603610db5576040517f08c379a0000000000000000000000000000000000000000000000000000000008152600401610dac90611f37565b60405180910390fd5b60008311610df8576040517f08c379a0000000000000000000000000000000000000000000000000000000008152600401610def90611fa3565b60405180910390fd5b600073ffffffffffffffffffffffffffffffffffffffff168273ffffffffffffffffffffffffffffffffffffffff1603610e67576040517f08c379a0000000000000000000000000000000000000000000000000000000008152600401610e5e90611f37565b60405180910390fd5b600073ffffffffffffffffffffffffffffffffffffffff168173ffffffffffffffffffffffffffffffffffffffff1603610ed6576040517f08c379a0000000000000000000000000000000000000000000000000000000008152600401610ecd90611f37565b60405180910390fd5b828173ffffffffffffffffffffffffffffffffffffffff166370a08231306040518263ffffffff1660e01b8152600401610f109190611971565b602060405180830381865afa158015610f2d573d6000803e3d6000fd5b505050506040513d601f19601f82011682018060405250810190610f5191906119a1565b1015610f92576040517f08c379a0000000000000000000000000000000000000000000000000000000008152600401610f8990611a1a565b60405180910390fd5b600060018054610fa29190611c19565b9050600060036000838152602001908152602001600020905081816000018190555060008160010160006101000a81548160ff02191690836001811115610fec57610feb6116e6565b5b0217905550848160020181905550838160040160006101000a81548173ffffffffffffffffffffffffffffffffffffffff021916908373ffffffffffffffffffffffffffffffffffffffff160217905550338160030160006101000a81548173ffffffffffffffffffffffffffffffffffffffff021916908373ffffffffffffffffffffffffffffffffffffffff160217905550428160050181905550828160070160006101000a81548173ffffffffffffffffffffffffffffffffffffffff021916908373ffffffffffffffffffffffffffffffffffffffff16021790555060018160060160008282546110e19190611c19565b9250508190555080600801339080600181540180825580915050600190039060005260206000200160009091909190916101000a81548173ffffffffffffffffffffffffffffffffffffffff021916908373ffffffffffffffffffffffffffffffffffffffff1602179055506001600460003373ffffffffffffffffffffffffffffffffffffffff1673ffffffffffffffffffffffffffffffffffffffff168152602001908152602001600020600084815260200190815260200160002060006101000a81548160ff02191690831515021790555060018060008282546111c89190611c19565b925050819055505050505050565b60008160ff161161121c576040517f08c379a00000000000000000000000000000000000000000000000000000000081526004016112139061200f565b60405180910390fd5b600060019054906101000a900460ff1660ff168160ff161115611274576040517f08c379a000000000000000000000000000000000000000000000000000000000815260040161126b906120a1565b60405180910390fd5b600260003373ffffffffffffffffffffffffffffffffffffffff1673ffffffffffffffffffffffffffffffffffffffff16815260200190815260200160002060009054906101000a900460ff16611300576040517f08c379a00000000000000000000000000000000000000000000000000000000081526004016112f790611ecb565b60405180910390fd5b6000600180546113109190611c19565b9050600060036000838152602001908152602001600020905081816000018190555080600801339080600181540180825580915050600190039060005260206000200160009091909190916101000a81548173ffffffffffffffffffffffffffffffffffffffff021916908373ffffffffffffffffffffffffffffffffffffffff160217905550338160030160006101000a81548173ffffffffffffffffffffffffffffffffffffffff021916908373ffffffffffffffffffffffffffffffffffffffff16021790555042816005018190555060018160010160006101000a81548160ff0219169083600181111561140b5761140a6116e6565b5b021790555060018160060160008282546114259190611c19565b92505081905550828160010160016101000a81548160ff021916908360ff1602179055506001600460003373ffffffffffffffffffffffffffffffffffffffff1673ffffffffffffffffffffffffffffffffffffffff168152602001908152602001600020600084815260200190815260200160002060006101000a81548160ff02191690831515021790555060018060008282546114c49190611c19565b92505081905550505050565b60026020528060005260406000206000915054906101000a900460ff1681565b600060ff82169050919050565b611506816114f0565b82525050565b600060208201905061152160008301846114fd565b92915050565b600080fd5b611535816114f0565b811461154057600080fd5b50565b6000813590506115528161152c565b92915050565b60006020828403121561156e5761156d611527565b5b600061157c84828501611543565b91505092915050565b6000819050919050565b61159881611585565b82525050565b60006020820190506115b3600083018461158f565b92915050565b600073ffffffffffffffffffffffffffffffffffffffff82169050919050565b60006115e4826115b9565b9050919050565b6115f4816115d9565b81146115ff57600080fd5b50565b600081359050611611816115eb565b92915050565b61162081611585565b811461162b57600080fd5b50565b60008135905061163d81611617565b92915050565b6000806040838503121561165a57611659611527565b5b600061166885828601611602565b92505060206116798582860161162e565b9150509250929050565b60008115159050919050565b61169881611683565b82525050565b60006020820190506116b3600083018461168f565b92915050565b6000602082840312156116cf576116ce611527565b5b60006116dd8482850161162e565b91505092915050565b7f4e487b7100000000000000000000000000000000000000000000000000000000600052602160045260246000fd5b60028110611726576117256116e6565b5b50565b600081905061173782611715565b919050565b600061174782611729565b9050919050565b6117578161173c565b82525050565b611766816115d9565b82525050565b600061014082019050611782600083018d61158f565b61178f602083018c61174e565b61179c604083018b6114fd565b6117a9606083018a61158f565b6117b6608083018961175d565b6117c360a083018861175d565b6117d060c083018761168f565b6117dd60e083018661158f565b6117eb61010083018561158f565b6117f961012083018461175d565b9b9a5050505050505050505050565b60008060006060848603121561182157611820611527565b5b600061182f8682870161162e565b935050602061184086828701611602565b925050604061185186828701611602565b9150509250925092565b60006020828403121561187157611870611527565b5b600061187f84828501611602565b91505092915050565b600082825260208201905092915050565b7f696e76616c696420747820696400000000000000000000000000000000000000600082015250565b60006118cf600d83611888565b91506118da82611899565b602082019050919050565b600060208201905081810360008301526118fe816118c2565b9050919050565b7f496e76616c6964207472616e73616374696f6e20747970650000000000000000600082015250565b600061193b601883611888565b915061194682611905565b602082019050919050565b6000602082019050818103600083015261196a8161192e565b9050919050565b6000602082019050611986600083018461175d565b92915050565b60008151905061199b81611617565b92915050565b6000602082840312156119b7576119b6611527565b5b60006119c58482850161198c565b91505092915050565b7f696e73756666696369656e742066756e64730000000000000000000000000000600082015250565b6000611a04601283611888565b9150611a0f826119ce565b602082019050919050565b60006020820190508181036000830152611a33816119f7565b9050919050565b7f7472616e73616374696f6e20616c726561647920636f6d706c65746564000000600082015250565b6000611a70601d83611888565b9150611a7b82611a3a565b602082019050919050565b60006020820190508181036000830152611a9f81611a63565b9050919050565b7f617070726f76616c7320616c7265616479207265616368656400000000000000600082015250565b6000611adc601983611888565b9150611ae782611aa6565b602082019050919050565b60006020820190508181036000830152611b0b81611acf565b9050919050565b7f6e6f7420612076616c6964207369676e65720000000000000000000000000000600082015250565b6000611b48601283611888565b9150611b5382611b12565b602082019050919050565b60006020820190508181036000830152611b7781611b3b565b9050919050565b7f63616e2774207369676e20747769636500000000000000000000000000000000600082015250565b6000611bb4601083611888565b9150611bbf82611b7e565b602082019050919050565b60006020820190508181036000830152611be381611ba7565b9050919050565b7f4e487b7100000000000000000000000000000000000000000000000000000000600052601160045260246000fd5b6000611c2482611585565b9150611c2f83611585565b9250828201905080821115611c4757611c46611bea565b5b92915050565b6000604082019050611c62600083018561175d565b611c6f602083018461158f565b9392505050565b611c7f81611683565b8114611c8a57600080fd5b50565b600081519050611c9c81611c76565b92915050565b600060208284031215611cb857611cb7611527565b5b6000611cc684828501611c8d565b91505092915050565b7f696e76616c69642075706461746551756f72756d206964000000000000000000600082015250565b6000611d05601783611888565b9150611d1082611ccf565b602082019050919050565b60006020820190508181036000830152611d3481611cf8565b9050919050565b7f496e76616c6964205472616e73616374696f6e20547970650000000000000000600082015250565b6000611d71601883611888565b9150611d7c82611d3b565b602082019050919050565b60006020820190508181036000830152611da081611d64565b9050919050565b7f51756f72756d2055706461746520436f6d706c65746564000000000000000000600082015250565b6000611ddd601783611888565b9150611de882611da7565b602082019050919050565b60006020820190508181036000830152611e0c81611dd0565b9050919050565b7f6e6f206f6620617070726f76616c732072656163686564000000000000000000600082015250565b6000611e49601783611888565b9150611e5482611e13565b602082019050919050565b60006020820190508181036000830152611e7881611e3c565b9050919050565b7f696e76616c6964207369676e6572000000000000000000000000000000000000600082015250565b6000611eb5600e83611888565b9150611ec082611e7f565b602082019050919050565b60006020820190508181036000830152611ee481611ea8565b9050919050565b7f61646472657373207a65726f20666f756e640000000000000000000000000000600082015250565b6000611f21601283611888565b9150611f2c82611eeb565b602082019050919050565b60006020820190508181036000830152611f5081611f14565b9050919050565b7f63616e27742073656e64207a65726f20616d6f756e7400000000000000000000600082015250565b6000611f8d601683611888565b9150611f9882611f57565b602082019050919050565b60006020820190508181036000830152611fbc81611f80565b9050919050565b7f63616e27742073656e64207a65726f2071756f72756d00000000000000000000600082015250565b6000611ff9601683611888565b915061200482611fc3565b602082019050919050565b6000602082019050818103600083015261202881611fec565b9050919050565b7f71756f72756d2067726561746572207468616e2076616c6964207369676e657260008201527f7300000000000000000000000000000000000000000000000000000000000000602082015250565b600061208b602183611888565b91506120968261202f565b604082019050919050565b600060208201905081810360008301526120ba8161207e565b905091905056fea2646970667358221220a3556bc4875f9b8925008826aba7581ea33cba035ed5230ab303483a6ad9c2ad64736f6c63430008180033a2646970667358221220643acd5bd7b452bb92e88a83f7c23b6e7f7afa112b38c7112ce8febaaa9f609e64736f6c63430008180033",
  "linkReferences": {},
  "deployedLinkReferences": {}
}